TN14780JTEGG32M500015704  20045275008200420090127100000000SVART               2017010320181031201306281206
DT65690JMBXNCU2W3U011751  20035154003200320031023000000000ROD                 2013122020150831201106161023
KF69090JSAERD31S00302354  20055378005200420050518000000000SVART               2015082020171031201602040518
VV12160WVGZZZ5NZBW027272  20105692073201020100909000000000SVART               2016090120181031201009090909
JU43870SB1EZ56L00E054208  20075422031200620070322000000000ROD                 2015091420171031200806180322
SA28260WVWZZZ1KZ8W187856  20085653023200720080222000000000BLA                 2016102120181031200802220222
UF42650WDB2037301A947275  20075553006200620070625000000000GUL                 2015070320171031201509230625
CP92370WAUZZZ8P6BA093042  20105972133201020101216020161110ROD                 2016120920181031201012161216
PU33750VF33H9HZC84727110  20065183004200520060912000000000GRA                 2016081920181031200609120912
SV75430SB1KC56E80F011419  20075063018200720070810000000000BLA                 2015090920171031201404150810
TD71580YV1LW7206Y2682372  19995230023199919991210000000000GRA                 2016011420171031201507131210
XP57560VNKKV18330A415866  20055359022200420050405000000000GRA                 2015062620171031201506300405
PE84390WF0TXXTTPT8B01563  20080112002200620080404000000000VIT                 2016112520181130200902050404
YC24420SB1EW56L40E083915  20045138027200420071031100000000GRA                 2016091420181031200710311012
UJ92220WVGZZZ1TZ9W071873  20080045007200620081216000000000SVART               2016081220181031201511181216