TN14780JTEGG32M500015704  20045275008200420090127100000000SVART               2017010320181031201306281206
DT65690JMBXNCU2W3U011751  20035154003200320031023000000000ROD                 2013122020150831201106161023
KF69090JSAERD31S00302354  20055378005200420050518000000000SVART               2017100120181031201602040518
VV12160WVGZZZ5NZBW027272  20105692073201020100909000000000SVART               2016090120181031201009090909
JU43870SB1EZ56L00E054208  20075422031200620070322000000000ROD                 2017082620181031200806180322
SA28260WVWZZZ1KZ8W187856  20085653023200720080222000000000BLA                 2016102120181031200802220222
UF42650WDB2037301A947275  20075553006200620070625000000000GUL                 2015070320171031201509230625
CP92370WAUZZZ8P6BA093042  20105972133201020101216020161110ROD                 2016120920181031201012161216
PU33750VF33H9HZC84727110  20065183004200520060912000000000GRA                 2016081920181031200609120912
SV75430SB1KC56E80F011419  20075063018200720070810000000000BLA                 2015090920171031201404150810
TD71580YV1LW7206Y2682372  19995230023199919991210000000000GRA                 2016011420171031201507131210
XP57560VNKKV18330A415866  20055359022200420050405000000000GRA                 2017082920180930201506300405
PE84390WF0TXXTTPT8B01563  20080112002200620080404000000000VIT                 2016112520181130200902050404
YC24420SB1EW56L40E083915  20045138027200420071031100000000GRA                 2016091420181031200710311012
UJ92220WVGZZZ1TZ9W071873  20080045007200620081216000000000SVART               2016081220181031201511181216
RH15770WF0PXXGCDP9U69148  20095879050200820090731000000000GRA                 2015101220171031201412040731
VT34020VF30U9HZHAS243735  20105400015201020101125000000000HVIT                2016091920181031201101191125
FJ57410VNKKG96300A013560  20065670006200520060512000000000SVART               2016100620181031200907200512
RB64170YS3EF59D253521797  20055400030200420050318000000000SVART               2015102120171031201402040318
HV74800JN1TENT30U0074882  20045604003200320070710100000000SVART               2016101120181031201506090414